{
  "_format": "hh-sol-artifact-1",
  "contractName": "MarketingTimelock",
  "sourceName": "contracts/MarketingTimelock.sol",
  "abi": [
    {
      "inputs": [
        {
          "internalType": "address",
          "name": "_scarabToken",
          "type": "address"
        },
        {
          "internalType": "uint256",
          "name": "_totalAllocation",
          "type": "uint256"
        },
        {
          "internalType": "uint256",
          "name": "_immediateUnlock",
          "type": "uint256"
        },
        {
          "internalType": "address[]",
          "name": "_multisigMembers",
          "type": "address[]"
        }
      ],
      "stateMutability": "nonpayable",
      "type": "constructor"
    },
    {
      "inputs": [],
      "name": "AccessControlBadConfirmation",
      "type": "error"
    },
    {
      "inputs": [
        {
          "internalType": "address",
          "name": "account",
          "type": "address"
        },
        {
          "internalType": "bytes32",
          "name": "neededRole",
          "type": "bytes32"
        }
      ],
      "name": "AccessControlUnauthorizedAccount",
      "type": "error"
    },
    {
      "inputs": [
        {
          "internalType": "address",
          "name": "token",
          "type": "address"
        }
      ],
      "name": "SafeERC20FailedOperation",
      "type": "error"
    },
    {
      "anonymous": false,
      "inputs": [
        {
          "indexed": true,
          "internalType": "uint256",
          "name": "id",
          "type": "uint256"
        },
        {
          "indexed": true,
          "internalType": "address",
          "name": "approver",
          "type": "address"
        },
        {
          "indexed": false,
          "internalType": "uint256",
          "name": "approvals",
          "type": "uint256"
        }
      ],
      "name": "ProposalApproved",
      "type": "event"
    },
    {
      "anonymous": false,
      "inputs": [
        {
          "indexed": true,
          "internalType": "uint256",
          "name": "id",
          "type": "uint256"
        },
        {
          "indexed": true,
          "internalType": "address",
          "name": "canceller",
          "type": "address"
        }
      ],
      "name": "ProposalCancelled",
      "type": "event"
    },
    {
      "anonymous": false,
      "inputs": [
        {
          "indexed": true,
          "internalType": "uint256",
          "name": "id",
          "type": "uint256"
        },
        {
          "indexed": true,
          "internalType": "address",
          "name": "recipient",
          "type": "address"
        },
        {
          "indexed": false,
          "internalType": "uint256",
          "name": "amount",
          "type": "uint256"
        },
        {
          "indexed": false,
          "internalType": "string",
          "name": "purpose",
          "type": "string"
        },
        {
          "indexed": false,
          "internalType": "uint256",
          "name": "executeTime",
          "type": "uint256"
        }
      ],
      "name": "ProposalCreated",
      "type": "event"
    },
    {
      "anonymous": false,
      "inputs": [
        {
          "indexed": true,
          "internalType": "uint256",
          "name": "id",
          "type": "uint256"
        },
        {
          "indexed": true,
          "internalType": "address",
          "name": "recipient",
          "type": "address"
        },
        {
          "indexed": false,
          "internalType": "uint256",
          "name": "amount",
          "type": "uint256"
        }
      ],
      "name": "ProposalExecuted",
      "type": "event"
    },
    {
      "anonymous": false,
      "inputs": [
        {
          "indexed": true,
          "internalType": "bytes32",
          "name": "role",
          "type": "bytes32"
        },
        {
          "indexed": true,
          "internalType": "bytes32",
          "name": "previousAdminRole",
          "type": "bytes32"
        },
        {
          "indexed": true,
          "internalType": "bytes32",
          "name": "newAdminRole",
          "type": "bytes32"
        }
      ],
      "name": "RoleAdminChanged",
      "type": "event"
    },
    {
      "anonymous": false,
      "inputs": [
        {
          "indexed": true,
          "internalType": "bytes32",
          "name": "role",
          "type": "bytes32"
        },
        {
          "indexed": true,
          "internalType": "address",
          "name": "account",
          "type": "address"
        },
        {
          "indexed": true,
          "internalType": "address",
          "name": "sender",
          "type": "address"
        }
      ],
      "name": "RoleGranted",
      "type": "event"
    },
    {
      "anonymous": false,
      "inputs": [
        {
          "indexed": true,
          "internalType": "bytes32",
          "name": "role",
          "type": "bytes32"
        },
        {
          "indexed": true,
          "internalType": "address",
          "name": "account",
          "type": "address"
        },
        {
          "indexed": true,
          "internalType": "address",
          "name": "sender",
          "type": "address"
        }
      ],
      "name": "RoleRevoked",
      "type": "event"
    },
    {
      "inputs": [],
      "name": "CANCELLER_ROLE",
      "outputs": [
        {
          "internalType": "bytes32",
          "name": "",
          "type": "bytes32"
        }
      ],
      "stateMutability": "view",
      "type": "function"
    },
    {
      "inputs": [],
      "name": "DEFAULT_ADMIN_ROLE",
      "outputs": [
        {
          "internalType": "bytes32",
          "name": "",
          "type": "bytes32"
        }
      ],
      "stateMutability": "view",
      "type": "function"
    },
    {
      "inputs": [],
      "name": "EXECUTOR_ROLE",
      "outputs": [
        {
          "internalType": "bytes32",
          "name": "",
          "type": "bytes32"
        }
      ],
      "stateMutability": "view",
      "type": "function"
    },
    {
      "inputs": [],
      "name": "GRACE_PERIOD",
      "outputs": [
        {
          "internalType": "uint256",
          "name": "",
          "type": "uint256"
        }
      ],
      "stateMutability": "view",
      "type": "function"
    },
    {
      "inputs": [],
      "name": "PROPOSER_ROLE",
      "outputs": [
        {
          "internalType": "bytes32",
          "name": "",
          "type": "bytes32"
        }
      ],
      "stateMutability": "view",
      "type": "function"
    },
    {
      "inputs": [],
      "name": "TIMELOCK_DELAY",
      "outputs": [
        {
          "internalType": "uint256",
          "name": "",
          "type": "uint256"
        }
      ],
      "stateMutability": "view",
      "type": "function"
    },
    {
      "inputs": [],
      "name": "VESTING_DURATION",
      "outputs": [
        {
          "internalType": "uint256",
          "name": "",
          "type": "uint256"
        }
      ],
      "stateMutability": "view",
      "type": "function"
    },
    {
      "inputs": [
        {
          "internalType": "uint256",
          "name": "proposalId",
          "type": "uint256"
        }
      ],
      "name": "approve",
      "outputs": [],
      "stateMutability": "nonpayable",
      "type": "function"
    },
    {
      "inputs": [],
      "name": "availableAmount",
      "outputs": [
        {
          "internalType": "uint256",
          "name": "",
          "type": "uint256"
        }
      ],
      "stateMutability": "view",
      "type": "function"
    },
    {
      "inputs": [
        {
          "internalType": "uint256",
          "name": "proposalId",
          "type": "uint256"
        }
      ],
      "name": "cancel",
      "outputs": [],
      "stateMutability": "nonpayable",
      "type": "function"
    },
    {
      "inputs": [
        {
          "internalType": "uint256",
          "name": "proposalId",
          "type": "uint256"
        }
      ],
      "name": "execute",
      "outputs": [],
      "stateMutability": "nonpayable",
      "type": "function"
    },
    {
      "inputs": [
        {
          "internalType": "uint256",
          "name": "proposalId",
          "type": "uint256"
        }
      ],
      "name": "getProposal",
      "outputs": [
        {
          "internalType": "address",
          "name": "recipient",
          "type": "address"
        },
        {
          "internalType": "uint256",
          "name": "amount",
          "type": "uint256"
        },
        {
          "internalType": "string",
          "name": "purpose",
          "type": "string"
        },
        {
          "internalType": "uint256",
          "name": "proposedTime",
          "type": "uint256"
        },
        {
          "internalType": "uint256",
          "name": "executeTime",
          "type": "uint256"
        },
        {
          "internalType": "bool",
          "name": "executed",
          "type": "bool"
        },
        {
          "internalType": "bool",
          "name": "cancelled",
          "type": "bool"
        },
        {
          "internalType": "uint256",
          "name": "approvals",
          "type": "uint256"
        }
      ],
      "stateMutability": "view",
      "type": "function"
    },
    {
      "inputs": [
        {
          "internalType": "bytes32",
          "name": "role",
          "type": "bytes32"
        }
      ],
      "name": "getRoleAdmin",
      "outputs": [
        {
          "internalType": "bytes32",
          "name": "",
          "type": "bytes32"
        }
      ],
      "stateMutability": "view",
      "type": "function"
    },
    {
      "inputs": [
        {
          "internalType": "bytes32",
          "name": "role",
          "type": "bytes32"
        },
        {
          "internalType": "address",
          "name": "account",
          "type": "address"
        }
      ],
      "name": "grantRole",
      "outputs": [],
      "stateMutability": "nonpayable",
      "type": "function"
    },
    {
      "inputs": [
        {
          "internalType": "uint256",
          "name": "",
          "type": "uint256"
        },
        {
          "internalType": "address",
          "name": "",
          "type": "address"
        }
      ],
      "name": "hasApproved",
      "outputs": [
        {
          "internalType": "bool",
          "name": "",
          "type": "bool"
        }
      ],
      "stateMutability": "view",
      "type": "function"
    },
    {
      "inputs": [
        {
          "internalType": "bytes32",
          "name": "role",
          "type": "bytes32"
        },
        {
          "internalType": "address",
          "name": "account",
          "type": "address"
        }
      ],
      "name": "hasRole",
      "outputs": [
        {
          "internalType": "bool",
          "name": "",
          "type": "bool"
        }
      ],
      "stateMutability": "view",
      "type": "function"
    },
    {
      "inputs": [],
      "name": "immediateUnlock",
      "outputs": [
        {
          "internalType": "uint256",
          "name": "",
          "type": "uint256"
        }
      ],
      "stateMutability": "view",
      "type": "function"
    },
    {
      "inputs": [],
      "name": "proposalCount",
      "outputs": [
        {
          "internalType": "uint256",
          "name": "",
          "type": "uint256"
        }
      ],
      "stateMutability": "view",
      "type": "function"
    },
    {
      "inputs": [
        {
          "internalType": "uint256",
          "name": "",
          "type": "uint256"
        }
      ],
      "name": "proposals",
      "outputs": [
        {
          "internalType": "uint256",
          "name": "id",
          "type": "uint256"
        },
        {
          "internalType": "address",
          "name": "recipient",
          "type": "address"
        },
        {
          "internalType": "uint256",
          "name": "amount",
          "type": "uint256"
        },
        {
          "internalType": "string",
          "name": "purpose",
          "type": "string"
        },
        {
          "internalType": "uint256",
          "name": "proposedTime",
          "type": "uint256"
        },
        {
          "internalType": "uint256",
          "name": "executeTime",
          "type": "uint256"
        },
        {
          "internalType": "bool",
          "name": "executed",
          "type": "bool"
        },
        {
          "internalType": "bool",
          "name": "cancelled",
          "type": "bool"
        },
        {
          "internalType": "uint256",
          "name": "approvals",
          "type": "uint256"
        }
      ],
      "stateMutability": "view",
      "type": "function"
    },
    {
      "inputs": [
        {
          "internalType": "address",
          "name": "recipient",
          "type": "address"
        },
        {
          "internalType": "uint256",
          "name": "amount",
          "type": "uint256"
        },
        {
          "internalType": "string",
          "name": "purpose",
          "type": "string"
        }
      ],
      "name": "propose",
      "outputs": [
        {
          "internalType": "uint256",
          "name": "",
          "type": "uint256"
        }
      ],
      "stateMutability": "nonpayable",
      "type": "function"
    },
    {
      "inputs": [
        {
          "internalType": "bytes32",
          "name": "role",
          "type": "bytes32"
        },
        {
          "internalType": "address",
          "name": "callerConfirmation",
          "type": "address"
        }
      ],
      "name": "renounceRole",
      "outputs": [],
      "stateMutability": "nonpayable",
      "type": "function"
    },
    {
      "inputs": [
        {
          "internalType": "bytes32",
          "name": "role",
          "type": "bytes32"
        },
        {
          "internalType": "address",
          "name": "account",
          "type": "address"
        }
      ],
      "name": "revokeRole",
      "outputs": [],
      "stateMutability": "nonpayable",
      "type": "function"
    },
    {
      "inputs": [],
      "name": "scarabToken",
      "outputs": [
        {
          "internalType": "contract IERC20",
          "name": "",
          "type": "address"
        }
      ],
      "stateMutability": "view",
      "type": "function"
    },
    {
      "inputs": [],
      "name": "startTime",
      "outputs": [
        {
          "internalType": "uint256",
          "name": "",
          "type": "uint256"
        }
      ],
      "stateMutability": "view",
      "type": "function"
    },
    {
      "inputs": [
        {
          "internalType": "bytes4",
          "name": "interfaceId",
          "type": "bytes4"
        }
      ],
      "name": "supportsInterface",
      "outputs": [
        {
          "internalType": "bool",
          "name": "",
          "type": "bool"
        }
      ],
      "stateMutability": "view",
      "type": "function"
    },
    {
      "inputs": [],
      "name": "totalAllocation",
      "outputs": [
        {
          "internalType": "uint256",
          "name": "",
          "type": "uint256"
        }
      ],
      "stateMutability": "view",
      "type": "function"
    },
    {
      "inputs": [],
      "name": "vestedAmount",
      "outputs": [
        {
          "internalType": "uint256",
          "name": "",
          "type": "uint256"
        }
      ],
      "stateMutability": "view",
      "type": "function"
    },
    {
      "inputs": [],
      "name": "withdrawnAmount",
      "outputs": [
        {
          "internalType": "uint256",
          "name": "",
          "type": "uint256"
        }
      ],
      "stateMutability": "view",
      "type": "function"
    }
  ],
  "bytecode": "0x61010060405234801562000011575f80fd5b5060405162001b9d38038062001b9d833981016040819052620000349162000303565b6001600160a01b038416620000805760405162461bcd60e51b815260206004820152600d60248201526c24b73b30b634b2103a37b5b2b760991b60448201526064015b60405180910390fd5b818311620000c65760405162461bcd60e51b815260206004820152601260248201527124b73b30b634b21030b63637b1b0ba34b7b760711b604482015260640162000077565b6003815110156200011a5760405162461bcd60e51b815260206004820152601760248201527f4e656564206174206c656173742033207369676e657273000000000000000000604482015260640162000077565b6001600160a01b03841660805260c083905260e08290524260a052620001415f3362000227565b505f5b81518110156200021c576200019c7fb09aa5aeb3702cfd50b6b62bc4532604938f21248a27a1d5ca736082b6819cc1838381518110620001885762000188620003f8565b60200260200101516200022760201b60201c565b50620001d77fd8aa0f3194971a2a116679f7c2090f6939c8d4e01a2a8d7e41d55e5351469e63838381518110620001885762000188620003f8565b50620002127ffd643c72710c63c0180259aba6b2d05451e3591a24e58b62239378085726f783838381518110620001885762000188620003f8565b5060010162000144565b50505050506200040c565b5f828152602081815260408083206001600160a01b038516845290915281205460ff16620002ca575f838152602081815260408083206001600160a01b03861684529091529020805460ff19166001179055620002813390565b6001600160a01b0316826001600160a01b0316847f2f8788117e7eff1d82e926ec794901d17c78024a50270940304540a733656f0d60405160405180910390a4506001620002cd565b505f5b92915050565b80516001600160a01b0381168114620002ea575f80fd5b919050565b634e487b7160e01b5f52604160045260245ffd5b5f805f806080858703121562000317575f80fd5b6200032285620002d3565b602086810151604088015160608901519397509095509350906001600160401b038082111562000350575f80fd5b818801915088601f83011262000364575f80fd5b815181811115620003795762000379620002ef565b8060051b604051601f19603f83011681018181108582111715620003a157620003a1620002ef565b60405291825284820192508381018501918b831115620003bf575f80fd5b938501935b82851015620003e857620003d885620002d3565b84529385019392850192620003c4565b989b979a50959850505050505050565b634e487b7160e01b5f52603260045260245ffd5b60805160a05160c05160e05161173a620004635f395f818161046d015261073301525f818161035a015261075901525f81816103330152818161078901526107ca01525f81816102f40152610fe5015261173a5ff3fe608060405234801561000f575f80fd5b50600436106101bb575f3560e01c80637b166f60116100f3578063b759f95411610093578063d547741f1161006e578063d547741f1461044c578063da35c6641461045f578063ef55503814610468578063fe0d94c11461048f575f80fd5b8063b759f95414610408578063c1a287e21461041b578063c7f758a814610425575f80fd5b806391d14854116100ce57806391d14854146103bf57806391f7cfb9146103d2578063a217fddf146103da578063b08e51c0146103e1575f80fd5b80637b166f601461037c578063830de4b11461038f5780638f61f4f514610398575f80fd5b806340e58ee51161015e5780635ba1c1a9116101395780635ba1c1a9146102e55780635ee17444146102ef57806378e979251461032e57806379203dc414610355575f80fd5b806340e58ee5146102bf57806344b1231f146102d25780634cfc4d30146102da575f80fd5b80632358d5a8116101995780632358d5a814610248578063248a9ca3146102755780632f2ff15d1461029757806336568abe146102ac575f80fd5b8063013cf08b146101bf57806301ffc9a7146101f057806307bd026514610213575b5f80fd5b6101d26101cd366004611257565b6104a2565b6040516101e7999897969594939291906112b1565b60405180910390f35b6102036101fe366004611312565b610583565b60405190151581526020016101e7565b61023a7fd8aa0f3194971a2a116679f7c2090f6939c8d4e01a2a8d7e41d55e5351469e6381565b6040519081526020016101e7565b61020361025636600461135b565b600460209081525f928352604080842090915290825290205460ff1681565b61023a610283366004611257565b5f9081526020819052604090206001015490565b6102aa6102a536600461135b565b6105b9565b005b6102aa6102ba36600461135b565b6105e3565b6102aa6102cd366004611257565b61061b565b61023a610730565b61023a6303c2670081565b61023a6202a30081565b6103167f000000000000000000000000000000000000000000000000000000000000000081565b6040516001600160a01b0390911681526020016101e7565b61023a7f000000000000000000000000000000000000000000000000000000000000000081565b61023a7f000000000000000000000000000000000000000000000000000000000000000081565b61023a61038a366004611399565b61081e565b61023a60015481565b61023a7fb09aa5aeb3702cfd50b6b62bc4532604938f21248a27a1d5ca736082b6819cc181565b6102036103cd36600461135b565b610a6b565b61023a610a93565b61023a5f81565b61023a7ffd643c72710c63c0180259aba6b2d05451e3591a24e58b62239378085726f78381565b6102aa610416366004611257565b610ac2565b61023a62093a8081565b610438610433366004611257565b610c6e565b6040516101e798979695949392919061145d565b6102aa61045a36600461135b565b610d78565b61023a60025481565b61023a7f000000000000000000000000000000000000000000000000000000000000000081565b6102aa61049d366004611257565b610d9c565b600360208190525f9182526040909120805460018201546002830154938301805492946001600160a01b039092169391926104dc906114b6565b80601f0160208091040260200160405190810160405280929190818152602001828054610508906114b6565b80156105535780601f1061052a57610100808354040283529160200191610553565b820191905f5260205f20905b81548152906001019060200180831161053657829003601f168201915b505050506004830154600584015460068501546007909501549394919390925060ff808316926101009004169089565b5f6001600160e01b03198216637965db0b60e01b14806105b357506301ffc9a760e01b6001600160e01b03198316145b92915050565b5f828152602081905260409020600101546105d381611057565b6105dd8383611064565b50505050565b6001600160a01b038116331461060c5760405163334bd91960e11b815260040160405180910390fd5b61061682826110f3565b505050565b7ffd643c72710c63c0180259aba6b2d05451e3591a24e58b62239378085726f78361064581611057565b5f8281526003602052604090208054831461067b5760405162461bcd60e51b8152600401610672906114e8565b60405180910390fd5b600681015460ff16156106a05760405162461bcd60e51b81526004016106729061151f565b6006810154610100900460ff16156106ee5760405162461bcd60e51b8152602060048201526011602482015270105b1c9958591e4818d85b98d95b1b1959607a1b6044820152606401610672565b60068101805461ff001916610100179055604051339084907f74c34a008ce735d9fcf0bd03a9b238d212ad4c441c020661f4ffbb6442645b85905f90a3505050565b5f7f00000000000000000000000000000000000000000000000000000000000000008161077d827f000000000000000000000000000000000000000000000000000000000000000061155d565b90506107ad6303c267007f0000000000000000000000000000000000000000000000000000000000000000611570565b42106107c4576107bd8183611570565b9150610818565b5f6107ef7f00000000000000000000000000000000000000000000000000000000000000004261155d565b90506303c267006108008284611583565b61080a919061159a565b6108149084611570565b9250505b50919050565b5f7fb09aa5aeb3702cfd50b6b62bc4532604938f21248a27a1d5ca736082b6819cc161084981611057565b6001600160a01b0385166108935760405162461bcd60e51b8152602060048201526011602482015270125b9d985b1a59081c9958da5c1a595b9d607a1b6044820152606401610672565b5f84116108d35760405162461bcd60e51b815260206004820152600e60248201526d125b9d985b1a5908185b5bdd5b9d60921b6044820152606401610672565b6108db610a93565b84111561092a5760405162461bcd60e51b815260206004820152601860248201527f4578636565647320617661696c61626c6520616d6f756e7400000000000000006044820152606401610672565b60028054905f610939836115b9565b9091555050600280545f8181526003602081905260409091208281556001810180546001600160a01b0319166001600160a01b038b161790559283018790559091908101610987868261161c565b50426004820181905561099e906202a30090611570565b6005820190815560068201805461ffff191690556001600783018190555f84815260046020908152604080832033845290915290819020805460ff1916909217909155905490516001600160a01b0389169184917f7d7c160743ad71943eeebe651bc4c5454aa42da293805baa96a623e316f11f4b91610a21918b918b916116dc565b60405180910390a360405160018152339083907f2f0f51d2f12c71357e60d575d47e93e081dbaf32072245ab1e01540f0aadbf1a9060200160405180910390a35095945050505050565b5f918252602082815260408084206001600160a01b0393909316845291905290205460ff1690565b5f80610a9d610730565b90506001548111610aaf575f91505090565b600154610abc908261155d565b91505090565b7fb09aa5aeb3702cfd50b6b62bc4532604938f21248a27a1d5ca736082b6819cc1610aec81611057565b5f82815260036020526040902080548314610b195760405162461bcd60e51b8152600401610672906114e8565b600681015460ff1615610b3e5760405162461bcd60e51b81526004016106729061151f565b6006810154610100900460ff1615610b8d5760405162461bcd60e51b8152602060048201526012602482015271141c9bdc1bdcd85b0818d85b98d95b1b195960721b6044820152606401610672565b5f83815260046020908152604080832033845290915290205460ff1615610be95760405162461bcd60e51b815260206004820152601060248201526f105b1c9958591e48185c1c1c9bdd995960821b6044820152606401610672565b5f8381526004602090815260408083203384529091528120805460ff1916600117905560078201805491610c1c836115b9565b9190505550336001600160a01b0316837f2f0f51d2f12c71357e60d575d47e93e081dbaf32072245ab1e01540f0aadbf1a8360070154604051610c6191815260200190565b60405180910390a3505050565b5f8181526003602081905260408220600181015460028201546004830154600584015460068501546007860154968601805489986060988a98899889988998899894976001600160a01b0390941696929593949193909260ff8084169361010090041691908690610cde906114b6565b80601f0160208091040260200160405190810160405280929190818152602001828054610d0a906114b6565b8015610d555780601f10610d2c57610100808354040283529160200191610d55565b820191905f5260205f20905b815481529060010190602001808311610d3857829003601f168201915b505050505095509850985098509850985098509850985050919395975091939597565b5f82815260208190526040902060010154610d9281611057565b6105dd83836110f3565b7fd8aa0f3194971a2a116679f7c2090f6939c8d4e01a2a8d7e41d55e5351469e63610dc681611057565b5f82815260036020526040902080548314610df35760405162461bcd60e51b8152600401610672906114e8565b600681015460ff1615610e185760405162461bcd60e51b81526004016106729061151f565b6006810154610100900460ff1615610e675760405162461bcd60e51b8152602060048201526012602482015271141c9bdc1bdcd85b0818d85b98d95b1b195960721b6044820152606401610672565b600381600701541015610eb05760405162461bcd60e51b81526020600482015260116024820152704e65656420332b20617070726f76616c7360781b6044820152606401610672565b8060050154421015610efb5760405162461bcd60e51b8152602060048201526014602482015273151a5b595b1bd8dac81b9bdd08195b185c1cd95960621b6044820152606401610672565b62093a808160050154610f0e9190611570565b421115610f505760405162461bcd60e51b815260206004820152601060248201526f141c9bdc1bdcd85b08195e1c1a5c995960821b6044820152606401610672565b610f58610a93565b81600201541115610f9f5760405162461bcd60e51b81526020600482015260116024820152704578636565647320617661696c61626c6560781b6044820152606401610672565b60068101805460ff19166001908117909155600282015481549091905f90610fc8908490611570565b90915550506001810154600282015461100f916001600160a01b037f000000000000000000000000000000000000000000000000000000000000000081169291169061115c565b600181015460028201546040519081526001600160a01b039091169084907f3b7c90df35b419337cff0919fe91849006607bb66c4373623f06f9d48c1ebb9890602001610c61565b61106181336111ae565b50565b5f61106f8383610a6b565b6110ec575f838152602081815260408083206001600160a01b03861684529091529020805460ff191660011790556110a43390565b6001600160a01b0316826001600160a01b0316847f2f8788117e7eff1d82e926ec794901d17c78024a50270940304540a733656f0d60405160405180910390a45060016105b3565b505f6105b3565b5f6110fe8383610a6b565b156110ec575f838152602081815260408083206001600160a01b0386168085529252808320805460ff1916905551339286917ff6391f5c32d9c69d2a47ea670b442974b53935d1edc7fd64eb21e047a839171b9190a45060016105b3565b604080516001600160a01b038416602482015260448082018490528251808303909101815260649091019091526020810180516001600160e01b031663a9059cbb60e01b1790526106169084906111eb565b6111b88282610a6b565b6111e75760405163e2517d3f60e01b81526001600160a01b038216600482015260248101839052604401610672565b5050565b5f8060205f8451602086015f885af18061120a576040513d5f823e3d81fd5b50505f513d9150811561122157806001141561122e565b6001600160a01b0384163b155b156105dd57604051635274afe760e01b81526001600160a01b0385166004820152602401610672565b5f60208284031215611267575f80fd5b5035919050565b5f81518084525f5b8181101561129257602081850181015186830182015201611276565b505f602082860101526020601f19601f83011685010191505092915050565b8981526001600160a01b038916602082015260408101889052610120606082018190525f906112e28382018a61126e565b6080840198909852505060a081019490945291151560c0840152151560e083015261010090910152949350505050565b5f60208284031215611322575f80fd5b81356001600160e01b031981168114611339575f80fd5b9392505050565b80356001600160a01b0381168114611356575f80fd5b919050565b5f806040838503121561136c575f80fd5b8235915061137c60208401611340565b90509250929050565b634e487b7160e01b5f52604160045260245ffd5b5f805f606084860312156113ab575f80fd5b6113b484611340565b925060208401359150604084013567ffffffffffffffff808211156113d7575f80fd5b818601915086601f8301126113ea575f80fd5b8135818111156113fc576113fc611385565b604051601f8201601f19908116603f0116810190838211818310171561142457611424611385565b8160405282815289602084870101111561143c575f80fd5b826020860160208301375f6020848301015280955050505050509250925092565b6001600160a01b038916815260208101889052610100604082018190525f906114888382018a61126e565b60608401989098525050608081019490945291151560a0840152151560c083015260e0909101529392505050565b600181811c908216806114ca57607f821691505b60208210810361081857634e487b7160e01b5f52602260045260245ffd5b60208082526017908201527f50726f706f73616c20646f6573206e6f74206578697374000000000000000000604082015260600190565b60208082526010908201526f105b1c9958591e48195e1958dd5d195960821b604082015260600190565b634e487b7160e01b5f52601160045260245ffd5b818103818111156105b3576105b3611549565b808201808211156105b3576105b3611549565b80820281158282048414176105b3576105b3611549565b5f826115b457634e487b7160e01b5f52601260045260245ffd5b500490565b5f600182016115ca576115ca611549565b5060010190565b601f82111561061657805f5260205f20601f840160051c810160208510156115f65750805b601f840160051c820191505b81811015611615575f8155600101611602565b5050505050565b815167ffffffffffffffff81111561163657611636611385565b61164a8161164484546114b6565b846115d1565b602080601f83116001811461167d575f84156116665750858301515b5f19600386901b1c1916600185901b1785556116d4565b5f85815260208120601f198616915b828110156116ab5788860151825594840194600190910190840161168c565b50858210156116c857878501515f19600388901b60f8161c191681555b505060018460011b0185555b505050505050565b838152606060208201525f6116f4606083018561126e565b905082604083015294935050505056fea264697066735822122083e636fb832f40005dfb7ba5043a2eefdaf44c6e641064cc39bfcdf2f52c220f64736f6c63430008180033",
  "linkReferences": {},
  "deployedLinkReferences": {}
}