{
  "_format": "hh-sol-artifact-1",
  "contractName": "TeamVesting",
  "sourceName": "contracts/TeamVesting.sol",
  "abi": [
    {
      "inputs": [
        {
          "internalType": "address",
          "name": "_scarabToken",
          "type": "address"
        },
        {
          "internalType": "address",
          "name": "_beneficiary",
          "type": "address"
        },
        {
          "internalType": "uint256",
          "name": "_totalAllocation",
          "type": "uint256"
        }
      ],
      "stateMutability": "nonpayable",
      "type": "constructor"
    },
    {
      "inputs": [
        {
          "internalType": "address",
          "name": "owner",
          "type": "address"
        }
      ],
      "name": "OwnableInvalidOwner",
      "type": "error"
    },
    {
      "inputs": [
        {
          "internalType": "address",
          "name": "account",
          "type": "address"
        }
      ],
      "name": "OwnableUnauthorizedAccount",
      "type": "error"
    },
    {
      "inputs": [
        {
          "internalType": "address",
          "name": "token",
          "type": "address"
        }
      ],
      "name": "SafeERC20FailedOperation",
      "type": "error"
    },
    {
      "anonymous": false,
      "inputs": [
        {
          "indexed": true,
          "internalType": "address",
          "name": "previousOwner",
          "type": "address"
        },
        {
          "indexed": true,
          "internalType": "address",
          "name": "newOwner",
          "type": "address"
        }
      ],
      "name": "OwnershipTransferred",
      "type": "event"
    },
    {
      "anonymous": false,
      "inputs": [
        {
          "indexed": true,
          "internalType": "address",
          "name": "beneficiary",
          "type": "address"
        },
        {
          "indexed": false,
          "internalType": "uint256",
          "name": "amount",
          "type": "uint256"
        },
        {
          "indexed": false,
          "internalType": "uint256",
          "name": "timestamp",
          "type": "uint256"
        }
      ],
      "name": "TokensClaimed",
      "type": "event"
    },
    {
      "inputs": [],
      "name": "beneficiary",
      "outputs": [
        {
          "internalType": "address",
          "name": "",
          "type": "address"
        }
      ],
      "stateMutability": "view",
      "type": "function"
    },
    {
      "inputs": [],
      "name": "claim",
      "outputs": [],
      "stateMutability": "nonpayable",
      "type": "function"
    },
    {
      "inputs": [],
      "name": "claimableAmount",
      "outputs": [
        {
          "internalType": "uint256",
          "name": "",
          "type": "uint256"
        }
      ],
      "stateMutability": "view",
      "type": "function"
    },
    {
      "inputs": [],
      "name": "claimedAmount",
      "outputs": [
        {
          "internalType": "uint256",
          "name": "",
          "type": "uint256"
        }
      ],
      "stateMutability": "view",
      "type": "function"
    },
    {
      "inputs": [],
      "name": "cliffDuration",
      "outputs": [
        {
          "internalType": "uint256",
          "name": "",
          "type": "uint256"
        }
      ],
      "stateMutability": "view",
      "type": "function"
    },
    {
      "inputs": [],
      "name": "getVestingInfo",
      "outputs": [
        {
          "internalType": "uint256",
          "name": "cliff",
          "type": "uint256"
        },
        {
          "internalType": "uint256",
          "name": "vestingEnd",
          "type": "uint256"
        },
        {
          "internalType": "uint256",
          "name": "vested",
          "type": "uint256"
        },
        {
          "internalType": "uint256",
          "name": "claimed",
          "type": "uint256"
        },
        {
          "internalType": "uint256",
          "name": "claimable",
          "type": "uint256"
        }
      ],
      "stateMutability": "view",
      "type": "function"
    },
    {
      "inputs": [],
      "name": "owner",
      "outputs": [
        {
          "internalType": "address",
          "name": "",
          "type": "address"
        }
      ],
      "stateMutability": "view",
      "type": "function"
    },
    {
      "inputs": [],
      "name": "renounceOwnership",
      "outputs": [],
      "stateMutability": "nonpayable",
      "type": "function"
    },
    {
      "inputs": [],
      "name": "scarabToken",
      "outputs": [
        {
          "internalType": "contract IERC20",
          "name": "",
          "type": "address"
        }
      ],
      "stateMutability": "view",
      "type": "function"
    },
    {
      "inputs": [],
      "name": "startTime",
      "outputs": [
        {
          "internalType": "uint256",
          "name": "",
          "type": "uint256"
        }
      ],
      "stateMutability": "view",
      "type": "function"
    },
    {
      "inputs": [],
      "name": "totalAllocation",
      "outputs": [
        {
          "internalType": "uint256",
          "name": "",
          "type": "uint256"
        }
      ],
      "stateMutability": "view",
      "type": "function"
    },
    {
      "inputs": [
        {
          "internalType": "address",
          "name": "newOwner",
          "type": "address"
        }
      ],
      "name": "transferOwnership",
      "outputs": [],
      "stateMutability": "nonpayable",
      "type": "function"
    },
    {
      "inputs": [],
      "name": "vestedAmount",
      "outputs": [
        {
          "internalType": "uint256",
          "name": "",
          "type": "uint256"
        }
      ],
      "stateMutability": "view",
      "type": "function"
    },
    {
      "inputs": [],
      "name": "vestingDuration",
      "outputs": [
        {
          "internalType": "uint256",
          "name": "",
          "type": "uint256"
        }
      ],
      "stateMutability": "view",
      "type": "function"
    },
    {
      "inputs": [],
      "name": "vestingProgress",
      "outputs": [
        {
          "internalType": "uint256",
          "name": "percentage",
          "type": "uint256"
        }
      ],
      "stateMutability": "view",
      "type": "function"
    }
  ],
  "bytecode": "0x6101406040526301e1338060e0526303c2670061010052348015610021575f80fd5b50604051610def380380610def833981016040819052610040916101da565b338061006657604051631e4fbdf760e01b81525f60048201526024015b60405180910390fd5b61006f81610170565b506001600160a01b0383166100b65760405162461bcd60e51b815260206004820152600d60248201526c24b73b30b634b2103a37b5b2b760991b604482015260640161005d565b6001600160a01b03821661010c5760405162461bcd60e51b815260206004820152601360248201527f496e76616c69642062656e656669636961727900000000000000000000000000604482015260640161005d565b5f81116101505760405162461bcd60e51b815260206004820152601260248201527124b73b30b634b21030b63637b1b0ba34b7b760711b604482015260640161005d565b6001600160a01b03928316608052911660a052610120524260c052610213565b5f80546001600160a01b038381166001600160a01b0319831681178455604051919092169283917f8be0079c531659141344cd1fd0a4f28419497f9722a3daafe3b4186f6b6457e09190a35050565b80516001600160a01b03811681146101d5575f80fd5b919050565b5f805f606084860312156101ec575f80fd5b6101f5846101bf565b9250610203602085016101bf565b9150604084015190509250925092565b60805160a05160c05160e0516101005161012051610ad96103165f395f81816101da01528181610364015261042001525f818160f9015281816102e8015281816103e00152818161068501528181610773015261084b01525f8181610222015281816102950152818161030c0152818161038c0152818161063c015281816106a9015281816107200152818161079701526107f801525f81816101b3015281816102b60152818161032d015281816103ad0152818161065d015281816106ca01528181610741015281816107b8015261081901525f8181610133015281816104600152818161056501526105a101525f818161018401526105430152610ad95ff3fe608060405234801561000f575f80fd5b50600436106100f0575f3560e01c806379203dc411610093578063d85349f711610063578063d85349f71461021d578063dc25a30014610244578063ed2abf9b14610274578063f2fde38b1461027c575f80fd5b806379203dc4146101d55780638da5cb5b146101fc5780639668ceb81461020c578063a556f84614610215575f80fd5b80634e71d92d116100ce5780634e71d92d146101755780635ee174441461017f578063715018a6146101a657806378e97925146101ae575f80fd5b80631514617e146100f457806338af3eed1461012e57806344b1231f1461016d575b5f80fd5b61011b7f000000000000000000000000000000000000000000000000000000000000000081565b6040519081526020015b60405180910390f35b6101557f000000000000000000000000000000000000000000000000000000000000000081565b6040516001600160a01b039091168152602001610125565b61011b61028f565b61017d610455565b005b6101557f000000000000000000000000000000000000000000000000000000000000000081565b61017d6105f0565b61011b7f000000000000000000000000000000000000000000000000000000000000000081565b61011b7f000000000000000000000000000000000000000000000000000000000000000081565b5f546001600160a01b0316610155565b61011b60015481565b61011b610603565b61011b7f000000000000000000000000000000000000000000000000000000000000000081565b61024c610632565b604080519586526020860194909452928401919091526060830152608082015260a001610125565b61011b61071a565b61017d61028a366004610a00565b61087f565b5f6102da7f00000000000000000000000000000000000000000000000000000000000000007f0000000000000000000000000000000000000000000000000000000000000000610a41565b4210156102e657505f90565b7f00000000000000000000000000000000000000000000000000000000000000006103517f00000000000000000000000000000000000000000000000000000000000000007f0000000000000000000000000000000000000000000000000000000000000000610a41565b61035b9190610a41565b421061038657507f000000000000000000000000000000000000000000000000000000000000000090565b5f6103d17f00000000000000000000000000000000000000000000000000000000000000007f0000000000000000000000000000000000000000000000000000000000000000610a41565b6103db9042610a5a565b90505f7f000000000000000000000000000000000000000000000000000000000000000061040b83612710610a6d565b6104159190610a84565b9050612710610444827f0000000000000000000000000000000000000000000000000000000000000000610a6d565b61044e9190610a84565b9250505090565b336001600160a01b037f000000000000000000000000000000000000000000000000000000000000000016146104d25760405162461bcd60e51b815260206004820152601a60248201527f4f6e6c792062656e65666963696172792063616e20636c61696d00000000000060448201526064015b60405180910390fd5b5f6104db610603565b90505f811161051f5760405162461bcd60e51b815260206004820152601060248201526f4e6f7468696e6720746f20636c61696d60801b60448201526064016104c9565b8060015f8282546105309190610a41565b9091555061058a90506001600160a01b037f0000000000000000000000000000000000000000000000000000000000000000167f0000000000000000000000000000000000000000000000000000000000000000836108bc565b604080518281524260208201526001600160a01b037f000000000000000000000000000000000000000000000000000000000000000016917f9923b4306c6c030f2bdfbf156517d5983b87e15b96176da122cd4f2effa4ba7b910160405180910390a250565b6105f8610913565b6106015f61093f565b565b5f8061060d61028f565b9050600154811161061f575f91505090565b60015461062c9082610a5a565b91505090565b5f808080806106817f00000000000000000000000000000000000000000000000000000000000000007f0000000000000000000000000000000000000000000000000000000000000000610a41565b94507f00000000000000000000000000000000000000000000000000000000000000006106ee7f00000000000000000000000000000000000000000000000000000000000000007f0000000000000000000000000000000000000000000000000000000000000000610a41565b6106f89190610a41565b935061070261028f565b92506001549150610711610603565b90509091929394565b5f6107657f00000000000000000000000000000000000000000000000000000000000000007f0000000000000000000000000000000000000000000000000000000000000000610a41565b42101561077157505f90565b7f00000000000000000000000000000000000000000000000000000000000000006107dc7f00000000000000000000000000000000000000000000000000000000000000007f0000000000000000000000000000000000000000000000000000000000000000610a41565b6107e69190610a41565b42106107f25750606490565b5f61083d7f00000000000000000000000000000000000000000000000000000000000000007f0000000000000000000000000000000000000000000000000000000000000000610a41565b6108479042610a5a565b90507f0000000000000000000000000000000000000000000000000000000000000000610875826064610a6d565b61062c9190610a84565b610887610913565b6001600160a01b0381166108b057604051631e4fbdf760e01b81525f60048201526024016104c9565b6108b98161093f565b50565b604080516001600160a01b038416602482015260448082018490528251808303909101815260649091019091526020810180516001600160e01b031663a9059cbb60e01b17905261090e90849061098e565b505050565b5f546001600160a01b031633146106015760405163118cdaa760e01b81523360048201526024016104c9565b5f80546001600160a01b038381166001600160a01b0319831681178455604051919092169283917f8be0079c531659141344cd1fd0a4f28419497f9722a3daafe3b4186f6b6457e09190a35050565b5f8060205f8451602086015f885af1806109ad576040513d5f823e3d81fd5b50505f513d915081156109c45780600114156109d1565b6001600160a01b0384163b155b156109fa57604051635274afe760e01b81526001600160a01b03851660048201526024016104c9565b50505050565b5f60208284031215610a10575f80fd5b81356001600160a01b0381168114610a26575f80fd5b9392505050565b634e487b7160e01b5f52601160045260245ffd5b80820180821115610a5457610a54610a2d565b92915050565b81810381811115610a5457610a54610a2d565b8082028115828204841417610a5457610a54610a2d565b5f82610a9e57634e487b7160e01b5f52601260045260245ffd5b50049056fea2646970667358221220a4607346dac3b479e643012566edb5a2fd6d10752f9c7fe90a437478f8c6c86264736f6c63430008180033",
  "linkReferences": {},
  "deployedLinkReferences": {}
}